:020000000F28C7
:10000800DE00030E8312A8000408A9000A08AA004B
:100018005F08AB0019281028A001A101A201A301C3
:10002800A401A501A60183014D290B1D2328A601C2
:10003800A401A001A101A201A30181010B110B1CC4
:1000480021290108A7002708A5008101051903290E
:100058002403031D432844302502031C4328493048
:100068002502031843280130A7002708A4070130F8
:10007800A7002708A2070130A7002708A307033015
:100088002406031D672896302502031C57289B3039
:100098002502031857280130A7002708A4070130B4
:1000A800A7002708A20783302502031C6728883089
:1000B8002502031867280130A7002708A407013084
:1000C800A7002708A30705302406031D7F28313021
:1000D8002502031C7F283630250203187F280130AB
:1000E800A7002708A4070130A7002708A2070130A6
:1000F800A7002708A30707302406031D97283130D7
:100108002502031C9728363025020318972801304A
:10011800A7002708A4070130A7002708A207013075
:10012800A7002708A30709302406031DAF284D3070
:100138002502031CAF28523025020318AF280130CE
:10014800A7002708A4070130A7002708A207013045
:10015800A7002708A3070B302406031DD328443023
:100168002502031CC328493025020318C32801307F
:10017800A7002708A4070130A7002708A2073130E5
:100188002502031CD328363025020318D328013052
:10019800A7002708A4070130A7002708A3070D30E8
:1001A8002406031DEB2831302502031CEB283630CA
:1001B80025020318EB280130A7002708A4070130FF
:1001C800A7002708A2070130A7002708A3070F30B8
:1001D8002406031D032931302502031C0329363068
:1001E8002502031803290130A7002708A4070130B6
:1001F800A7002708A2070130A7002708A307051DA5
:10020800202911302402031815290B302502031C5C
:10021800152910302502031815290130A7002708D1
:10022800A40711302406031D2029A4010830220642
:1002380003190516A201A3010B102B08DF002A08D9
:100248008A0029088400280E8300DE0E5E0E09004D
:10025800831285012F308316850096018B170B13A7
:100268008B160B128B150B118B100B109612161286
:10027800961116159610161081130113811201128A
:100288008111011181140114831281010B100B11CA
:0C029800080051212C2100004F29080013
:02400E00F4318B
:00000001FF
